:020000040800F2
:100000000000022039F4000835F4000835F4000837
:1000100035F4000835F4000835F40008000000004D
:1000200000000000000000000000000035F400089F
:1000300035F400080000000035F4000835F400082D
:1000400035F4000835F4000835F4000835F40008EC
:1000500035F4000835F4000835F4000835F40008DC
:1000600035F4000835F4000835F4000835F40008CC
:1000700035F4000835F4000835F4000835F40008BC
:1000800035F4000835F4000835F4000835F40008AC
:1000900035F4000835F4000835F4000835F400089C
:1000A00035F4000835F4000835F4000835F400088C
:1000B00011A1000835F4000835F4000835F40008F3
:1000C00035F4000835F4000835F4000835F400086C
:1000D00035F4000809C8000835F4000835F40008B4
:1000E00035F4000835F4000835F4000835F400084C
:1000F00035F4000835F4000835F4000835F400083C
:1001000035F4000835F4000835F4000835F400082B
:1001100035F40008B9C8000835F4000835F40008C3
:1001200035F4000835F4000835F4000835F400080B
:1001300035F4000835F4000835F4000835F40008FB
:1001400035F4000835F4000835F4000835F40008EB
:1001500035F4000835F4000835F4000835F40008DB
:1001600035F4000835F4000835F4000835F40008CB
:1001700035F4000835F4000835F4000835F40008BB
:1001800035F4000835F400080348044B834202D0DC
:10019000034B03B1184770479C0900209C090020BD
:1001A00000000000054806490B1AD90F01EBA30116
:1001B000491002D0034B03B1184770479C09002037
:1001C0009C0900200000000010B5064C237843B9BC
:1001D000FFF7DAFF044B13B10448AFF300800123AB
:1001E000237010BDA009002000000000E4A904084D
:1001F00008B5044B1BB104490448AFF30080BDE8C7
:100200000840CFE700000000A4090020E4A904088A
:10021000A3F5803A704700BF154B002B08BF114B68
:100220009D46FFF7F5FF00218B460F461148124A05
:10023000121A10F075F90C4B002B00D098470B4B9D
:10024000002B00D098470020002104000D000B482F
:1002500010F064F810F096F82000290007F028FF4D
:1002600010F062F80000080000000000000000002C
:1002700000000000A00900206C14012051030108B7
:1002800070B5044600254FF4B97025812080658142
:100290006573257310F00CF8C4E9045504F11C06CD
:1002A0006060A56104F13C03324622F8025B934290
:1002B000FBD104F2EC41002203F8012B9942FBD15F
:1002C000F023C4F8EC24C4F8F03420220021304696
:1002D00010F026F90523237409236382024B20467C
:1002E000C4E9053670BD00BF04000020F0B58FB032
:1002F000002302AC4FF4E37540F252564FF6AE279E
:100300004FF63A6C01F0C002802A1ED0C02A19D0E4
:10031000002A0CBF62463A4624F8132001338A00B3
:10032000042BD1B2EED104AA214610300FF0E8F828
:10033000002300930648142304AA022106F034F88F
:100340000FB0F0BD24F81360E8E724F81350E5E798
:10035000608A002038B5B0F8EC340446E3B13F4879
:1003600005F01CFC0546142D49D9B4F8EE345A1C8E
:100370002344A4F8EE2493F83C102046FFF7B6FF80
:10038000B4F8EE24B4F8EC34143D9A42ADB2EAD39A
:100390000023C4F8EC3432E04289038992B29BB264
:1003A0009A4212D1037B53B3038843B32C4B1B787F
:1003B00033BBD4F8F0245F20591C9BB29A4215D964
:1003C000234483F83C000B46F6E74289038992B246
:1003D0009BB29A4223BF428901880389038934BFB3
:1003E000428911FA83F39B1A9BB2DEE7A4F8EC244E
:1003F0000023A4F8EE34B4F8EC34002BAFD138BDB0
:1004000004F13C0304F15D0500202189628989B271
:1004100092B2914201D1227B82B16168628992B22B
:100420008A5C1A7020736289013292B2628161899A
:10043000228889B292B2914228BF60810133AB42D7
:10044000E3D1084A04F1840112F8010B03F8010B0F
:100450008B42F9D14823A4F8EC34C9E7608A002024
:100460009A9A0020400B01084FF416730C2202FBED
:100470000131B1F5966F8ABF4FF49663C0F8F0145E
:10048000C0F8F034704741890389028889B29BB271
:10049000994205D1037B002B0CBF1046002070470A
:1004A0004189038989B29BB2994239BF0389408946
:1004B000438900893ABF12FA80F0C01A181A80B234
:1004C000904288BF0020704708B5FFF7DCFF232368
:1004D000B0FBF3F0C0B208BD222AF8B504460D46C1
:1004E00027D1FFF7D0FF202825D901231846227BEA
:1004F00002F0FF062AB160730133222BF7D10020EE
:10050000F8BD61682289EF5C92B28F542289013272
:1005100092B222812189228889B292B2914228BF67
:1005200026812189628989B292B2914208BF2073E3
:10053000E2E70420E4E70520E2E730B500220024EA
:100540000025C0E90045C0E90222C0E90522028277
:10055000027730BDF0B500250024C0E900450B4D01
:100560002601775D8F4209D13544D5E9024554EA29
:100570000501C0E9004505D10420F0BD0134322C4D
:10058000EED1F9E7C0E902230020F6E7880B010865
:100590002DE9F743D0E90576D0E900254FEAE77960
:1005A00007FB05F302FB0933A7FB028999444FEAD5
:1005B000D87343EA490303F31E03C6EB4306038AD9
:1005C000876101EB610101330E449BB241F270710E
:1005D0008B420446466103823DD190F81CE086FBC5
:1005E0000601C30F43EA410387FB070187FB066748
:1005F0004FEAD07CF00F40EA470000F31E00C71717
:1006000045434CEA410C02FB0755A0FB020129447B
:10061000C20F03F31E030CF31E0C634442EA4102B3
:1006200002F31E02A3EB4202A368BEF1000F00D04A
:10063000E3689342CCBF002101217145217706D0A8
:100640000091074807491BB212B202F0AFF800232D
:10065000C4E905332382207F03B0BDE8F08300BFE7
:10066000B0D90020670B01080023C0E905330377E8
:100670000382704770470000B1F5006F10B50DD3CD
:1006800007484FF4802340F675440B4201D15B08C4
:10069000FBE7DA0A624351400142F6D1084610BD39
:1006A00000F8FFFF10B54C780B788978E40004EB74
:1006B000C32404EB51142146FFF7DEFF034B53F82C
:1006C00020006040C0F3C72010BD00BFA80E010885
:1006D00073B515464A7B0E7B1C46930943EA860395
:1006E0008DF804300B7DC97C9200890022F03F0216
:1006F00001F03C01114341EA93119B008DF8051074
:1007000023F00F0301A98DF80630FFF7CBFF030993
:1007100000F00F002B70207002B070BD187B02F04B
:100720000F0242EA0111C9B2134A20F03F0040EA29
:10073000910030B5187312F81150587B32F81140FF
:1007400000F00F00AA0840EA811102F030000143D6
:100750005973D97C02F00F0221F00F0111431A7D69
:10076000D97402F00302A10A42EA851201F03C01A9
:100770000A431A7530BD00BFA82E01080022C0E947
:10078000002270472DE9D8471446204A0646002328
:1007900012F8330088422ED102EBC3083068B8F853
:1007A0000230B38068BBB08840000FF081FD04EBDD
:1007B00044090027306004EB8909BA46B2881FFA61
:1007C0008AF39A4220D938460FF054FDC317A0FB94
:1007D000090109FB0311C30F43EA4103326803F324
:1007E0000F031FFA8AF10AF1010A22F81130D8F832
:1007F00004301F44E2E70133322BC9D10420BDE8A5
:10080000D8870FF053FDCEE70020F8E7A8300108A5
:10081000C3885A1C92B210B50468C28034F91330F0
:10082000848894429CBF0022C28009B15B421BB203
:10083000184610BD0246002302F8013B00F2E931E0
:1008400002F8013B9142FBD1C0E9FD33A0F8EA3345
:10085000C0F8EC33A0F8F033C0F8FC337047000068
:100860002DE9F04F85B0CDE901129946DFF8F4C0CB
:1008700000230446A0F8EA3340F2E23A0199DAB2E2
:100880008D5C002D3ED000210C20CAB242430CEBFF
:1008900002001CF802209AB3954201F10101F3D144
:1008A00090F808B0039000264FF00045F2B293454F
:1008B00026D9B4F8EA232A4802F0070704EBD20E3F
:1008C00010F8078003989EF80110476835EA070082
:1008D0000CBF41EA080121EA080152458EF80110D7
:1008E00006F1010607D90023A4F8EA3304252846B7
:1008F00005B0BDE8F08F0132A4F8EA236D08D5E712
:100900000133BBE79DF83830D4F8F403A4F8FC3386
:100910009DF83C30029AA4F8FE3345F6C053B3FB71
:10092000F2F2B3FBF9F3A4F8EE23A4F8F83308B11C
:100930000FF0BCFCB4F8F8030FF0BAFCC4F8F403F1
:10094000B4F8F843002361081F4601269AB2944286
:10095000CDD9914294BF3A463246C2540133F5E7AD
:1009600048340108383201080346007830B50028C1
:1009700039D0B3F8EC231C4DB3F8FA1303EBD200D3
:1009800002F0070440782C5D204007D0D3F8F443F0
:10099000B3F9FC03645C0CB9404200B2B3F8F8430D
:1009A000013189B28C42A3F8FA139CBF0021A3F84D
:1009B000FA13B3F8F013B3F8EE43013189B28C4265
:1009C000A3F8F0130FD8B3F8EA43013292B2002132
:1009D0009442A3F8EC23A3F8F0139EBF1970A3F878
:1009E000EC13A3F8FA1330BD48340108034600782D
:1009F00030B5002839D0B3F8EC231C4DB3F8FA1306
:100A000003EBD20002F0070440782C5D204007D0B1
:100A1000D3F8F443B3F9FE03645C0CB9404200B26E
:100A2000B3F8F843013189B28C42A3F8FA139CBFA2
:100A30000021A3F8FA13B3F8F013B3F8EE43013131
:100A400089B28C42A3F8F0130FD8B3F8EA4301320D
:100A500092B200219442A3F8EC23A3F8F0139EBFB6
:100A60001970A3F8EC13A3F8FA1330BD4834010849
:100A700000230370A0F8EC33A0F8F033A0F8FA33A9
:100A8000704700787047B0F8EC3343B9B0F8F033F2
:100A90002BB9B0F8FA03003818BF012070470120C5
:100AA000704708B50246FFF7EEFF38B9012313700F
:100AB000A2F8EC03A2F8F003A2F8FA0308BD0000C4
:100AC00000B58FB0C27A037A01780D92827A0C92C7
:100AD000427A0B92427B0A92027B0992C3F3801204
:100AE0000892DA090792C3F3401203F00F0306924B
:100AF0000593C3790493837903934379029303792C
:100B00000193C378009383784278044801EB810114
:100B100002F0B7FE0FB05DF804FB00BFD87C0020E8
:100B200070B50346044600F50072002503F8015B2A
:100B30009A42FBD14FF4B976A4F81052C4F800528F
:100B4000A4F8125284F80452A4F8086284F81452EB
:100B500084F8155230460FF0ABFBA4F82852C4F8C5
:100B60000C02A4F82A52C4F81852A4F81C52A4F893
:100B7000206284F82C5284F82D5230460FF098FBF6
:100B8000C4F82402204670BD1FB54FF49C63ADF835
:100B90000C3070238DF80E3000238DF80F10009369
:100BA00003AA042301210BF02BFF05B05DF804FB21
:100BB0001FB54FF4BC63ADF808307F238DF80A30C1
:100BC00000238DF80B108DF80C20009302AA05234A
:100BD00001210BF015FF05B05DF804FB10B50446CC
:100BE0008CB0714805F00EF94FF4A753ADF81030F2
:100BF00001238DF812306D4B6B481B788DF8133044
:100C00006B4B0DF10F021B788DF814300DF10E01B6
:100C100005F0DAF89DF80E302BB19DF8143043F052
:100C200002038DF81430604805F0E7F828B19DF80C
:100C3000143043F004038DF814305B4805F0D6F807
:100C400028B19DF8143043F008038DF8143056484D
:100C500005F0DFF828B19DF8143043F010038DF84B
:100C600014309DF80F302BB19DF8143043F0200361
:100C70008DF814304F4A9DF814301278002A14BFB2
:100C80004022002213438DF8143000238DF81530D4
:100C9000494B1B78002B62D0484806F07DFD8DF84B
:100CA0001600474B1B78002B63D0464B1B78002B5C
:100CB00058D045480CF04FF88DF8170042480CF01A
:100CC00052F88DF81800414B1B78002B56D0404845
:100CD00006F031FA8DF819003E4B1B78002B50D0EE
:100CE0003D4809F00DFD8DF81A003C4B1B78002B98
:100CF0004AD03B480BF0E3FB8DF81B00394B1B78C7
:100D0000002B44D038480AF0B4FC8DF81C00374B57
:100D10001B78002B3ED0364803F076FB8DF81D0083
:100D20000023ADF81E30334B1B78B3B3324806F0C6
:100D3000D3FE8DF82000314B1B788BB3304805F083
:100D400039FC8DF821000023ADF82230009304AA6D
:100D50001423012120460BF053FE0CB010BD8DF87A
:100D600016309EE70A2327488DF81730FFF7ACFBB3
:100D7000A7E78DF817308DF81830A4E78DF81930F3
:100D8000AAE78DF81A30B0E78DF81B30B6E78DF87A
:100D90001C30BCE78DF81D30C2E78DF82030CAE763
:100DA0008DF82130CFE700BF608A0020999A00209B
:100DB0009A9A0020989A0020DE010020307A0020C4
:100DC000DD010020DF01002074580020E501002033
:100DD00020EF0020E3010020F0D10020E2010020FC
:100DE00018AA0020E10100209C950020E0010020CD
:100DF000D87C0020E401002070D70020DC01002016
:100E0000E41300208831002010B5B4B0174B0293D2
:100E1000044640F27F331648ADF80C3009F004FB6D
:100E200010228DF80E0000210DF10F000FF078FB5D
:100E30000F480DF10F0109F0F9FA0E481723A3F13D
:100E40001702D2B2825C32B134A91944013301F8DD
:100E5000C82CDBB2F3E70092012102AA20468DF8EC
:100E600009300BF0CDFD34B010BD00BFE000000232
:100E7000608A0020313901082DE9F04F072A97B028
:100E8000154635D94B788C790A788F7891F803C05C
:100E900091F804E091F8058003EB830304F0010965
:100EA000C4F3400A5B00C4F38004002016AE06EBD6
:100EB000000BC61DF6B28E5D0BF8346C00F108060F
:100EC000F6B20130AE42C0B2F0DB16A908440021F0
:100ED00000F8341CCDE905A4CDE90389CDE901CEA4
:100EE0000448009709A902F065FC17B0BDE8F08F2F
:100EF0000420FAE7D87C0020F0B5052A93B0154607
:100F000028D94B78C8780A788F7891F804C000EB1C
:100F1000800003EB830344005B00002012AE06EB6D
:100F2000000E461DF6B28E5D0EF8346C861DF6B2CC
:100F30000130AE42C0B2F1DB12A90844002100F832
:100F4000341CCDE9014C0448009705A902F072FC5D
:100F500013B0F0BD0420FBE7D87C00200D2A084622
:100F600001D9FFF7ADBD042070470000F0B5032A9A
:100F700091B0164620D988780A784B78CF7800EB64
:100F8000800044000420051F0DF1400CB0425CFAC3
:100F900085F506DA11F800C005F834CC0130C0B28E
:100FA000F1E7002105F8341C0448CDE9004703A906
:100FB00002F0DCFC11B0F0BD0420FBE7D87C00207F
:100FC00010B54FF4E132044601210BF0DBFC204662
:100FD0004FF41652BDE8104003210BF0D3BC0000C3
:100FE00030B5134B1B78012B91B01FD8114B1B78D8
:100FF000E3B1E0238DF80C3010238DF80E3000247F
:10100000E5B2EB1CAA42DBB206D910AD2B440D5D54
:1010100003F8345C0134F3E7D31C0022DBB2009206
:10102000012103AA8DF80D300BF0EAFC11B030BDA0
:10103000999A0020DE01002030B5134B1B78012B5C
:1010400089B01FD8114B1B78E3B1E0238DF80C3029
:1010500011238DF80E300024E5B2EB1CAA42DBB25E
:1010600006D908AD2B440D5D03F8145C0134F3E799
:10107000D31C0022DBB20092012103AA8DF80D30AF
:101080000BF0BEFC09B030BD999A0020DE010020B3
:101090001FB50C4B1B78012B10D80B4B1B786BB179
:1010A0004FF47873ADF80C3012238DF80E30002316
:1010B000009303AA032301210BF0A2FC05B05DF805
:1010C00004FB00BF999A0020DE0100201FB50C4BE5
:1010D0001B78012B10D80B4B1B786BB14FF4787336
:1010E000ADF80C3013238DF80E300023009303AAC3
:1010F000032301210BF084FC05B05DF804FB00BF65
:10110000999A0020DE01002030B5154C247814F0A7
:10111000FD048DB022D1134D2D78FDB1002914BFEF
:101120001A211821E0258DF80A108DF80850214663
:10113000CDB2EC1CAB42E4B206D90CAD2C44555CEC
:1011400004F8285C0131F3E700220333DBB200929C
:10115000012102AA8DF809300BF052FC0DB030BD10
:10116000999A0020DD0100201FB50D4B1B7813F06C
:10117000FD0312D10B4A12787AB14FF4787200292C
:10118000ADF80C2014BF1B2219228DF80E200093FD
:1011900003AA032301210BF033FC05B05DF804FB27
:1011A000999A0020DD01002030B5144B1B78032BE9
:1011B000A5B000D0FBB9124B1B78E3B1E0238DF84A
:1011C0000C3020238DF80E300024E5B2EB1CAA422F
:1011D000DBB206D924AD2B440D5D03F8845C0134E9
:1011E000F3E7D31C0022DBB20092012103AA8DF8A1
:1011F0000D300BF005FC25B030BD00BF999A0020E2
:10120000E50100201FB50C4B1B78032B00D083B9E0
:101210000A4B1B786BB14FF47873ADF80C30212377
:101220008DF80E300023009303AA032301210BF055
:10123000E7FB05B05DF804FB999A0020E50100206A
:1012400030B5134B1C7814F0FB04A1B01ED1114B28
:101250001B78DBB1E0238DF8083030238DF80A309D
:10126000E5B2EB1CAA42DBB206D920AD2B440D5DE2
:1012700003F8785C0134F3E7D31C0022DBB2009260
:10128000012102AA8DF809300BF0BAFB21B030BD64
:10129000999A0020E301002030B5134B1C7814F01C
:1012A000FB04C3B01ED1114B1B78DBB1E0238DF8DA
:1012B0000C3031238DF80E30E5B2EB1CAA42DBB2C4
:1012C00006D942AD2B440D5D03F8FC5C0134F3E715
:1012D000D31C0022DBB20092012103AA8DF80D304D
:1012E0000BF08EFB43B030BD999A0020E301002043
:1012F0001FB50C4B1B7813F0FB030FD10A4A127871
:1013000062B14FF47872ADF80C2032228DF80E20C5
:10131000009303AA032301210BF072FB05B05DF8D3
:1013200004FB00BF999A0020E301002030B5144B64
:101330001B78052BA5B000D0FBB9124B1B78E3B18D
:10134000E0238DF80C3040238DF80E300024E5B2F8
:10135000EB1CAA42DBB206D924AD2B440D5D03F889
:10136000845C0134F3E7D31C0022DBB2009201213C
:1013700003AA8DF80D300BF043FB25B030BD00BF44
:10138000999A0020E20100201FB50C4B1B78052B19
:1013900000D083B90A4B1B786BB14FF47873ADF86A
:1013A0000C3041238DF80E300023009303AA032351
:1013B00001210BF025FB05B05DF804FB999A002094
:1013C000E201002030B5144B1B78072BA5B000D0EC
:1013D000FBB9124B1B78E3B1E0238DF80C304523A9
:1013E0008DF80E300024E5B2EB1CAA42DBB206D920
:1013F00024AD2B440D5D03F8845C0134F3E7D31C6A
:101400000022DBB20092012103AA8DF80D300BF00F
:10141000F7FA25B030BD00BF999A0020E101002005
:1014200030B5144B1B78072BA5B000D0FBB9124B7D
:101430001B78E3B1E0238DF80C3046238DF80E3095
:101440000024E5B2EB1CAA42DBB206D924AD2B4442
:101450000D5D03F8845C0134F3E7D31C0022DBB29A
:101460000092012103AA8DF80D300BF0C9FA25B0C6
:1014700030BD00BF999A0020E10100201FB50C4B40
:101480001B78072B00D083B90A4B1B786BB14FF444
:101490007873ADF80C3049238DF80E30002300939B
:1014A00003AA032301210BF0ABFA05B05DF804FB9E
:1014B000999A0020E10100201FB50C4B1B78072BE7
:1014C00000D083B90A4B1B786BB14FF47873ADF839
:1014D0000C3048238DF80E300023009303AA032319
:1014E00001210BF08DFA05B05DF804FB999A0020FC
:1014F000E101002070B5204B1B780A2BADF5027D71
:1015000000D023BB1D4B1B780BB3E023FC2A8DF8C6
:101510000830D5B21ED90024053565238DF8094061
:101520008DF80A508DF80B30013903AE2546013491
:10153000A4B211F8013F06F8013BA242F6D16B1D9F
:10154000002200929BB202AA01210BF059FA0DF57C
:10155000027D70BD033565238DF809508DF80A3082
:101560000DF10B048D18A94204D011F8013B04F8C9
:10157000013BF8E7D31CE3E7999A0020E001002043
:101580007FB50D4B1B780A2B00D093B90B4B1B7802
:101590007BB14FF49C63ADF80C3066238DF80E30B0
:1015A00000238DF80F10009303AA042301210BF0F0
:1015B00027FA07B05DF804FB999A0020E0010020AB
:1015C0007FB50C4B1B780A2B00D083B90A4B1B78D4
:1015D0006BB14FF47873ADF80C3067238DF80E3093
:1015E0000023009303AA032301210BF009FA07B09B
:1015F0005DF804FB999A0020E001002070B5204BB3
:101600001B780A2BADF5027D00D023BB1D4B1B7848
:101610000BB3E023FC2A8DF80830D5B21ED9002484
:10162000053555238DF809408DF80A508DF80B309B
:10163000013903AE25460134A4B211F8013F06F882
:10164000013BA242F6D16B1D002200929BB202AA7E
:1016500001210BF0D5F90DF5027D70BD0335552341
:101660008DF809508DF80A300DF10B048D18A94240
:1016700004D011F8013B04F8013BF8E7D31CE3E781
:10168000999A0020DC01002070B5C2B002ACE023C2
:1016900023708023A3700023DEB2F51CB242EDB2AA
:1016A00003D9CE5C66550133F6E7D31CDBB20022CA
:1016B00063700121009222460BF0A2F942B070BD86
:1016C00030B5124B1B78632BA5B01CD1E0238DF8ED
:1016D0000C3008238DF80E300024E5B2EB1CAA4232
:1016E000DBB206D924AD2B440D5D03F8845C0134D4
:1016F000F3E7D31C0022DBB20092012103AA8DF88C
:101700000D300BF07DF925B030BD00BF999A002057
:1017100030B5124B1B78602B8BB01CD1E0238DF8B9
:10172000083009238DF80A300024E5B2EB1CAA42E8
:10173000DBB206D90AAD2B440D5D03F8205C013401
:10174000F3E7D31C0022DBB20092012102AA8DF83C
:1017500009300BF055F90BB030BD00BF999A00204D
:1017600010B590F80432A4B0C3B1E0238DF80C306A
:10177000F1238DF80E300323DA1ED2B28A5C32B127
:1017800024AC1C44013304F8842CDBB2F4E70121BF
:10179000009103AA8DF80D300BF032F924B010BD82
:1017A0000A2910B50C4617D8D9B14B1E092B18D8E9
:1017B000DFE803F01E2E57595B5F5D171761112B91
:1017C0000FD8DFE803F0706E6C0E605E0E5C5A0E90
:1017D0007262646668626A74A1F15B03DAB2112A0C
:1017E000EDD934493448FFF7BBFF012C04D013E096
:1017F00032493148FFF7B4FF314806F0C3F93148A8
:1018000009F087FA30480AF093FA032C0ED008E06A
:101810002E492948FFF7A4FF2D4801F025F9022C95
:10182000EAD12C4805F002F8042C04D02A4807F02D
:10183000C9FE052C04D0294807F09CF9072C04D0D8
:10184000274803F087FC0A2C02D0264801F061FFEC
:1018500025480BF021FD21462448BDE8104004F046
:10186000CFB92349D5E72349D3E72349D1E7234912
:10187000CFE72349CDE72349CBE72349C9E72349EC
:10188000C7E72349C5E72349C3E72349C1E72349FC
:10189000BFE72349BDE72349BBE72349B9E723490C
:1018A000B7E72349B5E72349B3E72349B1E723491C
:1018B000AFE700BF8C360108B0D9002050340108D2
:1018C0007C360020CC1A0020CC3B00206334010879
:1018D00060590020E0DB0020ACAF00209C9A002083
:1018E000B08D0020D87C0020DC160020608A00200B
:1018F000733401088D3401089D340108AE340108A9
:10190000BE340108D1340108E0340108FD34010877
:1019100017350108323501084E3501086D350108CB
:101920008E350108AD350108CC350108EB350108CD
:101930000D360108323601085536010872360108A5
:101940002DE9F04F2DED068B242AA3B005D80420F5
:1019500023B0BDEC068BBDE8F08F91F80080C8F392
:10196000001380F804324C78CD7804F004030F9310
:1019700004F008030E9304F01003109304F0200306
:101980001193322D04F0400304F002071293DED8C5
:1019900091F804C091F802A0BCF1050F17D9BCF171
:1019A000070F00F02381BCF1060F00F02181BCF18C
:1019B0000A0F00F02081ACF15B03DBB2112BC6D81B
:1019C0008E4A22FA03F313F0010F0CD1BFE7BCF1EA
:1019D000010F02D114F0010FF7E7BCF1020F40F044
:1019E000F280002FB3D08E7E0F2EB0D891F81C90CD
:1019F000A9F17C030E2BAAD84B7913938B791493FE
:101A0000CB7915930B7A16934B7A17938B7A18939D
:101A1000CB7A19930B7B1A934B7B1B938B7B1C9379
:101A2000CB7B1D930B7C1E934B7C1F934B7D0A7DC0
:101A3000219208EE103A8B7D91F81BB008EE903A97
:101A4000CB7D09EE103A4B7F09EE903A8B7F0AEE80
:101A5000103ACB7F20936146FFF7A2FE68486FEAF9
:101A60000801C1F3C01101706649674804F0010420
:101A70000C70294605F088FD003F6449644818BF92
:101A800001270F702946FEF7EFFC624831460BF044
:101A90003BF9614831460AF033F95F4859460AF08C
:101AA0003BF95E48314609F0D3FA5D48314606F00D
:101AB000F3F90F9B5B48191E18BF012101705A48AA
:101AC000294605F021FB219A5748C8F3C00105F0CB
:101AD0002AFB0E9B554956481A1E18BF01220A7050
:101AE000294608F059FD18EE101A514808F063FD18
:101AF000109B504950481A1E18BF01220A702946EF
:101B00000AF0C8FC18EE901A4B480AF0D2FC129B5F
:101B10004A494B481A1E18BF01220A70294609F08B
:101B200093FD19EE101A464809F09DFD454A4648B6
:101B30000AF001011170294605F026FF4349444887
:101B4000CAF340020A7019EE901A04F02DFDA9F1B3
:101B50008001209B3F481AEE102A49B20AF0B5F9DD
:101B6000119B3D4A3D48003B18BF01231370C8F349
:101B700040130D93149B803B0C93139B803B0B9362
:101B80001F9B0A931E9B09931D9B08931C9B079305
:101B90001B9B06931A9B0593199B0493189B039315
:101BA000179B0293169B0193159B0093C8F3400269
:101BB000C8F3800308F0010104F097F8274804F007
:101BC00085F80020C4E6BCF1030F04D10F9B002B65
:101BD0007FF409AFBBE6BCF1040F01D10E9BF6E721
:101BE000BCF1050F7FF4FFAE109BF0E7129BEEE710
:101BF0001AF0010FE9E6119BE9E700BFBFFD030002
:101C0000DF010020DE010020307A0020DD0100200D
:101C10008831002074580020CC3B0020CC1A0020D2
:101C20007C360020E501002020EF0020E3010020A9
:101C3000F0D10020E201002018AA0020E1010020DC
:101C40009C950020E401002070D70020DC010020DA
:101C5000E4130020580A0020E0010020608A0020E0
:101C600008B502B31E4B09781B788B4213D00529A7
:101C700013D907292DD006292DD00A292DD0A1F15D
:101C80005B03DBB2112B0ED8164A22FA03F3DB07F3
:101C900009D5FFF785FD002115E0012905D1124B7B
:101CA0001B78002BF5D104210DE0022901D10F4B47
:101CB000F6E7032901D10E4BF2E7042905D10D4BBC
:101CC0001B78002BE5D1084608BD0529E1D10A4B58
:101CD000E6E70A4BE4E70A4BE2E70A4BE0E700BF1E
:101CE000999A0020BFFD0300DE010020DD010020E5
:101CF000E5010020E3010020E2010020E1010020D5
:101D0000E4010020E001002070B590F80432A4B096
:101D100013B3E0238DF80C30F2238DF80E3003233B
:101D2000DC1EE4B224AD0E5D5C1CE4B21D441EB1A9
:101D300005F8846C2346F3E7111205F8841C24A9E6
:101D40000C440233012104F8842CDBB2009103AA75
:101D50008DF80D300AF054FE24B070BDF7B504467E
:101D60000846312811461D4635D965286AD85428B9
:101D700019D8402800F0B182A0F14503DAB20B2A4D
:101D800000F2CD830B2B00F2CA83DFE813F0C3020D
:101D9000E002C803C803F902C803C803C803C803A4
:101DA000C803C8034103A0F15503102B00F2B78309
:101DB000DFE813F06803B503B503B503B503B50356
:101DC000B503B503B503B503B503730086009600EC
:101DD000A800B5034B03312800F2A183DFE810F01F
:101DE00044004000480053005A009F039F039F0394
:101DF000A2009F03FC009F039F039F039F039F0379
:101E0000110130019F0348019F039F039F039F031C
:101E10005F019F037F019F030002D40115029F030E
:101E20002A029F039F039F039F039F039F039F0318
:101E30009F039F039F039F039F039F039F039F0392
:101E400047026402802800F0378300F17003DBB2A0
:101E5000012B00F264830023C4F8003203B0F0BD0C
:101E60002046FEF7BBFEF6E72046FEF7CDFFF2E781
:101E70002A462046FFF764FD022102462046E2B9C9
:101E8000FEF782FEE7E72A462046FFF7E9FE032138
:101E90000246F3E704212046F2E72A462046FEF7F1
:101EA000EBFF054608B96021F5E702B29C499D4861
:101EB000FFF72AFF2A4660212046FEF779FECAE78F
:101EC0002A462046FFF718F8054608B96121E2E7DF
:101ED00002B295499348FFF717FF2A466121EBE7C5
:101EE0000D2D06D90846FEF7EBFD054610B9622117
:101EF000D1E704258D498B482AB2FFF705FF2A4612
:101F00006221D9E72A462046FFF730F8054608B98E
:101F10006321C0E702B286498248FFF7F5FE2A46F0
:101F20006321C9E7834F3B78632B4BD182480191F2
:101F30002A460AF047FC019906463B785C3BDBB237
:101F4000062B0BD84D2222FA03F3DB0706D57B487C
:101F500001912A4607F036FA019906463B78663B1E
:101F6000052B06D8764801912A4609F053FC0199C1
:101F700006463B785D2B06D1724801912A460AF04D
:101F8000F1F8019906463B785B2B06D16E4801912A
:101F90002A4601F06DFB019906463B786C2B06D171
:101FA0006A4801912A4608F025FC019906463B78CB
:101FB000652B04D166482A4605F088FF06461EB9FF
:101FC000082168E70226B8E76249564832B2FFF7AF
:101FD0009BFE324608216FE7564B1B787BB92A4699
:101FE0005D480BF0E7F8054600283FF434AF5B4945
:101FF0004C482AB2FFF788FE2A460A215CE70525ED
:10200000F5E7574B1B7893B14A4E3378012B0ED826
:102010002A46544805F0ECFB054648B93378002BB6
:102020007FF419AF01212046FFF7BAFB13E7022521
:102030004D493C482AB2FFF767FE2A4610213BE78C
:10204000474B1B7893B13B4E3378012B0ED82A4671
:10205000444805F0F3FB05460028DFD043493148EA
:102060002AB2FFF751FE2A46112125E70225F5E79E
:102070003B4B1B788BB12F4E3378012B0DD8394851
:1020800005F002FC05460028C8D0394925482AB287
:10209000FFF73AFE2A4613210EE70225F5E7354BF6
:1020A0001B789BB1234E337813F0FD0F0ED1324BCA
:1020B0001B785BB12A4631480AF05EFE054630B90E
:1020C0003378002B7FF4C7AE0221ACE702252C4900
:1020D00014482AB2FFF718FE2A461821ECE6254BD1
:1020E0001B78D3B1134E327812F0FD0F15D1224B6D
:1020F0001B782A466BB121480AF082FE054600286B
:10210000DED01F4907482AB2FFF7FEFD2A461A21F2
:10211000D2E61C48FEF7E0F9F0E70225F1E700BF40
:102120009D360108B0D90020BA360108D73601081B
:10213000F4360108999A0020B416002048160020B1
:10214000B8160020CC160020C9160020C8160020A2
:10215000CE16002011370108DC16002033370108A5
:10216000DE010020307A002046370108653701087B
:1021700082370108DD010020DF01002074580020B3
:102180009E370108883100208A4B1B78EBB1012D66
:1021900024D1117801290DD1874B1B78022B1DD139
:1021A000864B1B78002B7FF456AE294684480AF0F4
:1021B0001BFD50E691B9804B1B78022B0ED17F4B53
:1021C0001B78002B3FF447AEF0E702257D497E489F
:1021D0002A46FFF799FD2A461D216DE60425F5E7FD
:1021E000744B1B787BB12A4675480AF0B3FC054650
:1021F00000283FF430AE754973482AB2FFF784FDDA
:102200002A461C2158E60225F5E76A4B1B787BB16C
:102210002A466B480AF0D2FC054600283FF41BAE64
:102220006B4969482AB2FFF76FFD2A461E2143E633
:102230000225F5E7674B1B7883B15F4E32780AB110
:10224000032A0BD12A46644804F07DFF054630B9C5
:102250003378002B7FF4FFAD0321E4E602255F49CC
:1022600059482AB2FFF750FD2A46202124E65C4B4C
:102270001B7883B1504E337813F0FB0F0BD12A46F5
:10228000584808F045FA054630B93378002B7FF4FA
:10229000E2AD0421C7E6022553494B482AB2FFF7B5
:1022A00033FD2A46302107E64D4B1B789BB1424E49
:1022B000337813F0FB0F0ED12A464A4808F028FA6B
:1022C00005460028E1D049493F482AB2FFF71CFDE6
:1022D0002A463121F0E50225F5E7454B1B7883B10D
:1022E000354E32780AB1052A0BD12A4641480AF008
:1022F000EEF8054630B93378002B7FF4ACAD0521FC
:1023000091E602253C4930482AB2FFF7FDFC2A46F7
:102310004021D1E5394B1B7883B1274E32780AB181
:10232000072A0BD1EAB2364809F0ABF9054630B9B5
:102330003378002B7FF48FAD072174E602253149F5
:1023400021482AB2FFF7E0FC2A464521B4E52B4B91
:102350001B789BB1184E32780AB1072A0ED1EAB227
:10236000274809F08EF905460028E1D0264916488D
:102370002AB2FFF7C9FC2A4646219DE50225F5E76A
:102380001E4B1B789BB10C4E32780AB1072A0ED136
:10239000EAB21B4809F075F905460028C8D01B4968
:1023A00009482AB2FFF7B0FC2A46492184E50225F4
:1023B000F5E700BFDD010020999A00209A9A0020DD
:1023C00074580020B8370108B0D90020D33701086D
:1023D000F1370108E501002020EF00200C3801084A
:1023E000E3010020F0D10020303801084C3801080A
:1023F000E201002018AA002065380108E101002050
:102400009C95002080380108A5380108C6380108CD
:10241000444B1B7883B1444E32780AB1062A0BD163
:102420002A46424805F060FB054630B93378002B58
:102430007FF411AD0621F6E502253D493D482AB25B
:10244000FFF762FC2A46502136E53B4B1B7883B1EF
:10245000354E32780AB10A2A0BD1EAB2374801F078
:10246000DDFF054630B93378002B7FF4F4AC0A2148
:10247000D9E5022532492F482AB2FFF745FC2A4602
:10248000652119E52F4B1B78A3B1274B1B780BB1A6
:102490000A2B0FD12A462C4804F09EF80546002846
:1024A0003FF4D9AC294923482AB2FFF72DFC2A462C
:1024B000552101E50225F5E70022012693B29D4250
:1024C0007FF6C9AC94F8143203F0FF071BB184F80F
:1024D00015620132F2E7D4F80C02B4F8103211F8A8
:1024E00002C09BB200F803C0B4F8103201339BB2B3
:1024F000A4F81032B4F81002B4F8083280B29BB2DB
:10250000984228BFA4F81072B4F81002B4F812323E
:1025100080B29BB2984208BF84F81462D9E70122C6
:102520000146C9E4E4010020999A002070D70020F8
:10253000DF380108B0D90020E0010020D87C00205D
:10254000FC380108DC010020E413002015390108E3
:102550002DE9F0410446C2B00126C51C071D01212A
:1025600020460AF019FA8046002840D00121204672
:102570000AF036FAB4F8003201463BB9E02806BF4B
:102580002070C4F80062A4F80232E8E7012B06D1FB
:1025900002236070A4F80202A4F80032DFE7022BE5
:1025A000B4F8022210D10323A070A4F800321AB9A3
:1025B000FF30A4F80202D2E7032AD0D100232A4632
:1025C0002046FFF7CBFBCAE7E05401339BB29342AE
:1025D000A4F80032C3D1FF2B8BBF043B033BE1784F
:1025E000A17887BF9BB23A469BB22A46E8E7524899
:1025F00003F00CFC4BF67F339842B4F81222B4F887
:10260000103288BFC4F8008292B29BB29A4243D182
:1026100094F81432002B57D0B4F80852002D53D040
:10262000032120460AF0CAF900268542C8BF85B2B8
:102630003746B3B29D4247D9B4F81022B4F81232EB
:102640008DF80C7092B29BB29A4202D194F8143277
:10265000CBB1D4F80C22B4F812329BB2D35C84F81C
:1026600014728DF80C30B4F8123201339BB2A4F816
:102670001232B4F81222B4F8083292B29BB29A42E3
:1026800028BFA4F812720097012303AA0321204651
:102690000AF0B6F90136CCE7B4F81222B4F81032D9
:1026A00092B29BB29A4223BFB4F81232B4F8082215
:1026B000B4F81052B4F8105234BFB4F8123212FA0F
:1026C00085F5ED1AADB2A9E7032120460AF064F9B9
:1026D000051E2DDDD4F81822AA4227D1B4F81C32E9
:1026E000632B03D8F92A01DC01331AE003AE374625
:1026F000032120460AF074F9D4F8182206F8010BD9
:1027000008F10108013A4545C4F8182202D0B8F191
:10271000FA0FEDD1AA1AD2B239462046FEF7B4FF1D
:102720000023A4F81C3242B0BDE8F081F92DDDDCB5
:10273000C4F81852F4E700BF608A0020F0B51E46C6
:1027400090F80432A5B07BB3E0238DF80C30F3236E
:102750008DF80E300324E31EDBB2651CCF5C24AB86
:10276000EDB223441FB103F8847C2C46F3E7111229
:1027700003F8841C24AB1D44A31C05F8842C24AA54
:1027800052FA83F3321203F8842C221DD3B203349D
:1027900024AA52FA84F4012104F8846C03AA00915B
:1027A0008DF80D300AF02CF925B0F0BDF0B590F899
:1027B0000442A5B0BDF9A860002C3CD0E0248DF8FF
:1027C0000C40F4248DF80E400324E51EEDB224AF36
:1027D00011F805C0651CEDB22744BCF1000F03D011
:1027E00007F884CC2C46F0E7111207F8841C24A9C2
:1027F0000D4405F8842CA21C51FA82F2191202F839
:10280000841C24A9E21C51FA82F202F8843C231DA4
:1028100051FA83F3321203F8842CA31D053451FAC4
:1028200084F4012104F8846CDBB2009103AA8DF8D2
:102830000D300AF0E5F825B0F0BDF0B590F804428F
:10284000A5B0BDF9A870BDF9AC60002C49D0E0245A
:102850008DF80C40F5248DF80E400324E51EEDB2F2
:102860000DF1900C11F805E0651CEDB2A444BEF129
:10287000000F03D00CF884EC2C46EFE711120CF893
:10288000841C24A90D4405F8842CA21C51FA82F260
:10289000191202F8841C24A9E21C51FA82F202F8EF
:1028A000843C231D51FA83F33A1203F8842C631DF0
:1028B00051FA83F3321203F8847CA31D51FA83F397
:1028C00003F8842C04F10803073451FA84F401213D
:1028D00004F8846CDBB2009103AA8DF80D300AF085
:1028E0008FF825B0F0BD30B5ADF5037DE023FC2AAF
:1028F0008DF80830D3B21ED9053300248DF80A3084
:10290000FA238DF809408DF80B30013903AD11F829
:10291000013F05F8013B23460134A4B2A242F6D19F
:102920000533002200929BB202AA01210AF068F846
:102930000DF5037D30BD03338DF80930FA238DF892
:102940000A308D180DF10B03A94204D011F8014B88
:1029500003F8014BF8E700230332009393B2E3E757
:102960000346002230B503F8082B002400F13002A2
:102970000025E3E802459A42FBD100F5D0530C3321
:10298000002122F8021B9342FBD100F5EE511A46BA
:102990000C31002322F8023B9142FBD141F6CC528C
:1029A0002F49835041F6D052815041F6D4522D49DF
:1029B000815041F6D85242F20F71815241F6DC52F9
:1029C0004FF00001835000F5EF52136041F6E452DE
:1029D000835241F6E652815441F6E8520021835079
:1029E00041F6EC52835041F6F052835041F6F452D6
:1029F000835041F6F852835000F5EF5200F5F5533D
:102A00001C32043342F8041B9342FBD11A4600F5F2
:102A1000FA530C33002142F8041B9342FBD11A46AF
:102A200000F5FF531433002142F8041B9342FBD1FD
:102A30001A4600F502531C33002142F8041B93424E
:102A4000FBD100F503510631002203F8012B994216
:102A5000FBD142F2C803C25042F2CC03C25230BD95
:102A600000000F270F270F2741F6DC5200230370C9
:102A7000835000F5EF520F49136041F6CC5283505A
:102A800041F6D052815041F6D4520B49815041F663
:102A9000D85242F20F71815241F6E452835241F60C
:102AA000E652835442F2C802835042F2CC0283526F
:102AB000704700BF00000F270F270F2742F2CC02FC
:102AC00010B50446805AB0B142F2C802A258B2FB17
:102AD000F0F2C2F3072081F82A2081F829002B2286
:102AE0000648FEF77DFA42F2C8020023A35042F2E4
:102AF000CC02A35210BD2922F2E700BFB0D90020BA
:102B000042F2CC0210B50446805AA0B142F2C8028B
:102B1000A258B2FBF0F2C2F307204A7308730E22E8
:102B20000648FEF789FA42F2C8020023A35042F297
:102B3000CC02A35210BD0C22F2E700BFB0D9002096
:102B400041F6CC5370B5C35A0133044650F83330C4
:102B5000214823F07F435840002106F0AFFC0228B3
:102B600035D841F6D0531D4DE35A03F26D1292B29F
:102B7000B2F5F07F24BFA3F1730292B218230020B4
:102B800002F6045104EB410115F8016BB1F9041090
:102B9000DEB1401A511D89B2B1F5F07F24BF6FF448
:102BA000ED71521803F1FF332CBF92B20A4613F0B5
:102BB000FF03E5D141F6DC52A158814209DAA05069
:102BC00041F6CE520120A35270BD0844E2E7002036
:102BD000FAE71846F8E700BF50765500BF410108F4
:102BE000F8B541F6CC530578C35A0133044650F882
:102BF0003330364823F07F43022D80EA03004FF044
:102C0000000118BF002506F059FCA8425BD841F628
:102C1000D0532F4EE25A02F26D139BB2B3F5F07F00
:102C200024BFA2F173039BB21820002503F60451C0
:102C300004EB410116F8017BB1F90410002F40D0DC
:102C40006D1A591D89B2B1F5F07F24BF6FF4ED778D
:102C5000DB1900F1FF302CBF9BB20B4610F0FF00D8
:102C6000E4D104F5EF531968A94229DA1D6041F651
:102C7000E45341F6D251E05241F6D453E252531D8F
:102C80009BB2B3F5F07F24BF6FF4ED70131863525D
:102C9000531C9BB2B3F5F07F28BF6FF4EF7341F67E
:102CA000D85128BFD318635202F2DF139BB2B3F599
:102CB000F07F41F6D65128BF02F1FF336352012065
:102CC000F8BD0D44BDE70020FAE700BF68B4AA00D4
:102CD000A741010838B504460D46FFF731FFB0B1F2
:102CE00041F6E6530522E25441F6CE52A35A03F1CF
:102CF0001801013324F81150A35242F2C8020023F4
:102D0000A35042F2CC02A3520123237038BD2046C7
:102D1000FFF766FF0028F9D006490748FEF720FDB7
:102D20000648012102F05CFF0448012102F064FF23
:102D30000223EAE757390108B0D90020608A002051
:102D40002DE9F043079EBDF820C0DFF84CE0DFF826
:102D50004C800024A0B298421BD231F9129000F0AE
:102D60000700E710B9F1000FF55DB4BF18F80000D7
:102D70001EF8000002F1050292B2B4BF05430540FF
:102D8000624528BFA2EB0C02F55528BF92B2013470
:102D9000E0E7BDE8F08300BF143C01081C3C0108DB
:102DA00041F6CC532DE9F041C35A0133044650F8A3
:102DB00033305148002586B05840294606F07EFB46
:102DC000012818D84D494E48FEF7CAFC4D482946FF
:102DD00002F006FF4B48294602F00EFF4848FEF776
:102DE00075F941F6DC53E55004F5EF531D6025708D
:102DF00006B0BDE8F08141F6D653E15A41F6D8530A
:102E0000E25A41F6D0539142E35A24D2994204D86F
:102E10009A4202D32046FFF7E3FE41F6E45834F825
:102E20000830952B1AD938493548FEF799FC3548B2
:102E3000002102F0D5FE3348002102F0DDFE3048CB
:102E4000FEF726F941F6DC520023A35004F5EF52B9
:102E500013602370CCE79942DAD8DBE741F6D05310
:102E600041F6D857E25AE35B9A42C1D14FF4F0736E
:102E700041F6D25602AD0193009504F5D051A25B04
:102E800060230C312046FFF75BFF34F80820152142
:102E9000B2FBF1F301FB13239BB233BBA2B9552361
:102EA0008DF8113041F22D63ADF8123041F6D65352
:102EB0001649E35E0193E35F009341F6D453A25FAA
:102EC000E35E0F48FFF7B9FC29462046FFF718FEDE
:102ED00041F6E452A35A0133A35241F6DC520023D7
:102EE000A35004F5EF54236082E705480C222946DD
:102EF000FEF7A2F8ECE700BF5E13AAAA7839010832
:102F0000B0D90020608A002098390108C039010832
:102F100041F6E8532DE9F04FC45841F6EC5304F064
:102F20000702C7580B6807EB030841F6F453C44681
:102F3000C6580B6906EB030EF045A8BFF446E3083C
:102F4000F04500EB8303B5BFDFF8F8E0DFF8F8E009
:102F50001EF802E01EF802E041F6FC5941F6A468B2
:102F600053F80950B4BF0EEA05054EEA050543F8CB
:102F700009504D6807EB050E4D692E44B64577465E
:102F8000A8BF3746B645B4BF2E4E2F4E53F8085053
:102F9000B5BFB65CB65C3540354343F8085041F6E2
:102FA000F0558E6950F805E08D680EEB050A41F684
:102FB000F855D046455905EB0609CA45A8BFC8468D
:102FC000CA45B5BFDFF87C90DFF87C9019F8029015
:102FD00019F8029041F64C7B53F80B60B4BF09EA34
:102FE000060649EA060643F80B60CE68C9697644CE
:102FF0000D44AE4241F6F479B646A8BFAE46AE42A5
:1030000053F8091019DA0F4DAA5C0A4043F8092059
:1030100041F6EC53013440F803C041F6F053C75079
:1030200041F6F45340F8038041F6F85340F803E0CA
:1030300041F6E853C450BDE8F08F034DAA5C0A4343
:10304000E4E700BF043C01080C3C010870B5D1E97D
:10305000003288B083F00105D11882F001062A44BD
:103060003344CDE90512009174196946CDE9032472
:10307000019402930793FFF74BFF08B070BD000067
:10308000F0B500222F4D304F40F24911134642F265
:103090009C04032B1DD8DFE803F0021F3745CE1038
:1030A00006F27E7601F0070300EB860615F803C0F2
:1030B00073681CEA030318BF022300EBD20C02F072
:1030C00007061CF804E0BE5D06EA0E060CF8046074
:1030D00001320139DDD2F0BDCE1006F5F56601F002
:1030E000070300EB860615F803C073681CEA0303A8
:1030F00018BF022300EBD20C02F007061CF804E014
:10310000AE5D46EA0E06E1E7CB1003F2D27300EBA8
:10311000830301F007065B68AE5D1E420CBF01230E
:103120000323CAE7CE1006F2FC7600EB860601F018
:10313000070C766815F80CC01CEA060F08BF0123BF
:10314000D8E700BF0C3C0108043C010830B5124D23
:103150004FF0FF32481E01F1260410F8013F5340A2
:10316000DBB2C2F3072235F81330844283EA02034C
:103170001A46F2D1DB4391F827009AB2DBB29842AB
:1031800007D191F82830B3EB122F0CBF012000209B
:1031900030BD0020FCE700BF043A01082DE9F043F0
:1031A0008D4C99B015464B1E01F1520613F8017F64
:1031B00014F8012B9E4282EA07021A70F6D100230E
:1031C00003AA1C460133542B02F8014BFAD1DFF855
:1031D00010E20022764680270EEB4204B2F5257FEE
:1031E00060DB41F6EC520024845041F6F052802717
:1031F000845041F6F4524026845041F6F8528450EF
:1032000041F6E852845018AB03EBE40313F8542C56
:1032100004F0070327FA03F1114226FA03F314BF5F
:1032200001210021134214BF012300230291023423
:1032300001A90193FFF70AFFB4F5257FE3D1FFF75A
:103240001FFF6B1E05F12802002103F8011F9A429F
:10325000FBD140F24912614F144642F29C064FF0F6
:10326000010C00EBE20102F0070811F806E017F884
:1032700008101EEA010FA4EB020309D0D90803F0DD
:10328000070315F801E00CFA03F343EA0E036B544D
:10329000013AE6D22946FFF759FF19B0BDE8F0839D
:1032A0001A469BE7D31011F803C01CF0010F0CD095
:1032B00094F8008018AB9844637818F8549C27FA67
:1032C00003F343EA090308F8543C1CF0020F0CD046
:1032D00094F8028018AB9844E37818F8549C27FAC5
:1032E00003F343EA090308F8543C1CF0040F0CD024
:1032F00094F8048018AB9844637918F8549C27FA22
:1033000003F343EA090308F8543C1CF0080F0CD0FF
:1033100094F8068018AB9844E37918F8549C27FA7F
:1033200003F343EA090308F8543C131DB3F5257F62
:1033300004F10804B4DA1CF0100F0FD016F8134093
:103340000DF1600806EB430344445B7814F8548C99
:1033500027FA03F343EA080304F8543C1CF0200F57
:1033600010D0531D0DF1600816F8134006EB43030F
:1033700044445B7814F8548C27FA03F343EA0803B7
:1033800004F8543C1CF0400F10D0931D0DF1600860
:1033900016F8134006EB430344445B7814F8548C4E
:1033A00027FA03F343EA080304F8543C1CF0800FA7
:1033B00010D0D31D0DF1600C16F8134006EB43033B
:1033C00064445B7814F854CC27FA03F343EA0C0303
:1033D00004F8543C0832FFE6243C01080C3C010888
:1033E0007F3C010870B541F6E656A2B0835D044605
:1033F0000D4623B1FFF7A4FBA35D013BA35541F6A6
:10340000CE52A35A03F1180101339BB224F8115094
:10341000A35240F6E942934219D140F6E4430DAD80
:103420000193052204F13001204600954FF42573E5
:10343000FFF786FC02AA29462046FFF7AFFE78BBBD
:1034400041F6DC532070E05004F5EF53186041F66C
:10345000CE53E25A40F6EE439A421FD141F6E4536E
:103460000022E25241F6D0534FF0EE72E25041F6A4
:10347000D453124AE25041F6D8524FF4EC73A3529F
:103480004FF4EB72CDE900320D490E4840F2D713EC
:103490004FF4EE72FFF7D1F90223237022B070BD12
:1034A0000948012102F09CFB0748012102F0A4FB1E
:1034B00002A92046FFF702FBC9E700BFD701D601EA
:1034C000E2390108B0D90020608A00202DE9F047D8
:1034D00000F5EE5904460E46174698464FF0000A8E
:1034E00009F10C091FFA8AF3984547D942F2C8023C
:1034F00037F81A10A3580B44A35042F2CC02A35A37
:103500000133A352B9F8005036F91A1004EBC5057F
:10351000D5E9020300185B410029B8BF40F0010063
:10352000C5E9020341F6D055635B03F6045304EB8F
:10353000430399802378012B05D0022B1AD0204613
:10354000FFF7C8FB02E02046FFF74CFF635B013347
:103550009BB2B3F5F07F28BF00236353B9F8003066
:1035600001339BB2042B88BF0023A9F800300AF175
:10357000010AB7E72046FFF713FCE7E7BDE8F0874D
:1035800000224FF480410260818082718260027368
:103590007047C9010180D201494241808280704751
:1035A000B0F9003030B593B1827932B98B420ADC80
:1035B000012383710023836003738368B3F5166F5F
:1035C00007D900211AE0B0F902308B42F0DA084640
:1035D00030BD047B0E49B0F9045051F82410621C30
:1035E000D2B20B2A027301FB05F188BF00224FEA19
:1035F000E13188BF027301F30F0109B2013342F6D2
:10360000DF6293428360E2D900238371DFE700BF6A
:10361000D841010800220270427082707047000099
:1036200010B50446104808F07BFE0F4808F047FF2D
:10363000A8B16378012B13D1A1780C4B0A48C1EBD8
:10364000C101C1EBC1011944312208F040FFA37848
:10365000013303F00303A370237803B9637010BD33
:1036600000236370A370FAE718AA0020084201083B
:10367000012A03460AD10A78012A0CBF0121002140
:10368000017005D1407818B95A707047042070470E
:103690000020704738B500F678450446284604F007
:1036A00090FEA0B1284604F091FE80B10849094877
:1036B000FEF756F8002384F84C3C284604F077FEC9
:1036C00004F6584004F073FE012384F8983C38BD9A
:1036D000CC420108B0D9002070B5D0E90432D0E95D
:1036E00002546A43066803FB0122836906FB032236
:1036F000C369466803FB1422036A06FB1323DB132A
:1037000003F30E031BB2C0E90054C0E902131846CC
:1037100070BD38B50025044680F84C5C00F5456066
:1037200004F045FE04F6584004F041FE04F66840FB
:1037300004F03DFE04F5476004F039FE04F67840DD
:1037400004F035FE04F5486004F031FE04F68840CC
:1037500004F02DFE04F5496004F029FE04F54060F4
:10376000FCF782FF04F58060FDF782F904F5006044
:10377000FDF77EF92046FDF77BF904F5446005F07E
:1037800075FEA4F8585D04F55660A4F85A5D84F8F7
:103790005D5D84F85C5D07F022F904F5526003F08A
:1037A0009CFD04F6284007F07BFA84F8985CA4F8A6
:1037B000805D38BD2DE9F74F9DF834409DF83060AD
:1037C0009DF83CB0C4EB04149946A4009DF8383031
:1037D0000193A4B29DF8483080F84F3C0F469046C4
:1037E0009DF840109DF8442080F84D1C00F5466A75
:1037F00080F84E2C054600222146504604F0C5FDB7
:10380000C6EB0611890089B2002205F5456004F077
:10381000BCFD14B1504604F0C5FD019B0C9342461B
:103820004B4639462846CDF834B003B0BDE8F04FDA
:10383000FDF716B82DE9F7439DF828909DF83080E4
:1038400004460D4616460021BDF82C20019200F6D4
:1038500078401F4604F099FD019AB9F1000F04D099
:10386000494604F5476004F090FD3B463246294640
:1038700004F58060CDE90A8803B0BDE8F043FCF7A9
:10388000EFBF2DE9F04F2DED028B85B09B469DF8E3
:1038900040309DF858E09DF85CC09DF84CA09DF824
:1038A00050909DF864509DF868609DF8708008EE17
:1038B000103A9DF8443003939DF8483008EE903A52
:1038C0009DF85430019307469DF874309DF86000D0
:1038D00002931446019B9DF86C2087F8183D87F8E9
:1038E00019ED87F81ACD87F81B0DA7F81C2D07F6E0
:1038F0005840002204F049FD0022514607F6684076
:1039000004F043FD0022494607F5486004F03DFD00
:10391000214607F5446005F077FD2246414607F64B
:103920000850FFF736FE029BA7F83E3D3246294677
:1039300007F6284007F02CF9039B18EE102A594689
:1039400007F54060FCF706FE58B918EE902A594674
:1039500007F5426005B0BDEC028BBDE8F04FFCF707
:1039600011BF05B0BDEC028BBDE8F08F70B49DF8BF
:1039700010401546012680F83C6DA0F81E5D1A46E1
:1039800000F50060BDF80C30CDE9034470BCFCF7D5
:1039900067BF000070B504460D4600F5456004F0B1
:1039A00009FD294604F6584004F004FD294604F5B3
:1039B000466004F0FFFC294604F6684004F0FAFC77
:1039C000294604F5476004F0F5FC294604F67840E2
:1039D00004F0F0FC04F68846294604F5486004F03B
:1039E000E9FC2946304604F0E5FC04F54960294627
:1039F00004F0E0FC304604F0E4FC68B1304604F02A
:103A0000E5FC48B194F84C1C0448FDF7B9FD30467C
:103A1000BDE8704004F0C6BC70BD00BFB0D9002046
:103A200038B504460D46D9B100F65845284604F08D
:103A3000C8FC40B3284604F0C9FC20B3124813491F
:103A4000FDF78EFE042384F84C3C284604F0AFFCBE
:103A500094F83C3DBBB1BDE838400B48FDF7B0BD24
:103A60000B4802F0BDF82946094802F0C5F809499B
:103A70000548FDF775FE032384F84C3C04F67840B6
:103A800004F090FCE4E738BDB0D90020DF42010823
:103A9000608A0020F342010870B5044600F67845BC
:103AA0000E4699B11448012102F09AF812480121FA
:103AB00002F0A2F811481249FDF752FE022384F8E1
:103AC0004C3C2846BDE8704004F071BC284604F028
:103AD00078FC78B1284604F079FC58B109490748C8
:103AE000FDF73EFE284684F84C6C04F060FC04F6BA
:103AF0005840E7E770BD00BF608A0020B0D90020C1
:103B00000D430108CC42010838B50446A9B100F6BE
:103B10005845284604F055FCE0B1284604F056FC10
:103B2000C0B10D480D49FDF71BFE092384F84C3C3C
:103B30002846BDE8384004F03ABC07480849FDF77C
:103B40000FFE082384F84C3C04F67840BDE838406A
:103B500004F028BC38BD00BFB0D9002022430108C2
:103B60003743010810B5044661B108480849FDF71C
:103B7000F7FD072384F84C3C04F67840BDE810407C
:103B800004F015BCBDE81040FFF784BDB0D900209B
:103B90005243010838B504460D4699B90A4802F067
:103BA0001FF82946084802F027F808480849FDF799
:103BB000D7FD052384F84C3C04F67840BDE8384036
:103BC00004F0F0BB38BD00BF608A0020B0D90020EF
:103BD0006843010870B5044600F678450E4699B171
:103BE0001448012101F0FCFF1248012102F004F801
:103BF00011481249FDF7B4FD042384F84C3C2846D3
:103C0000BDE8704004F0D3BB284604F0DAFB78B17D
:103C1000284604F0DBFB58B109490748FDF7A0FD31
:103C2000284684F84C6C04F0C2FB04F65840E7E7E1
:103C300070BD00BF608A0020B0D90020DF420108BB
:103C4000CC42010810B5044661B907480749FDF7A1
:103C500087FD0A2384F84C3C04F67840BDE8104008
:103C600004F0A0BB10BD00BFB0D900208143010803
:103C700010B5044661B108480849FDF771FD0923F4
:103C800084F84C3C04F67840BDE8104004F08FBB4B
:103C9000BDE81040FFF7FEBCB0D900202243010868
:103CA00038B500F546650446284604F08AFB78B12D
:103CB000284604F08BFBA0B10A490B48FDF750FDE4
:103CC0002046FCF7EEFE2846BDE8384004F06ABB0B
:103CD00005480449FDF744FD2046BDE83840FCF79F
:103CE000E0BE38BD9B430108B0D9002070B5044642
:103CF00000F668460D46E9B1304604F067FB00283F
:103D000043D022492248FDF72BFD022384F84C3C86
:103D1000304604F04CFB94F84D3CB3B394F84F3C60
:103D20009BB32046FFF7BCFF04F54560BDE870403B
:103D300004F038BB174801F053FF1648294601F03C
:103D40005BFF15491248FDF70BFD304684F84C5CCB
:103D500004F02DFB04F6584004F029FB04F54760FD
:103D600004F025FB04F5456004F021FB04F68840CF
:103D700004F01DFB012384F8983C94F83C3D23B1EA
:103D8000BDE870400248FDF71BBC70BD0D43010843
:103D9000B0D90020608A0020CC42010838B5044622
:103DA0000D4699B300F65845284604F00AFBD8B1F1
:103DB000284604F00BFBB8B11E491F48FDF7D0FCA4
:103DC000042384F84C3C04F5476004F0F0FA2846DC
:103DD00004F0EDFA04F5446005F042FB94F83C3D34
:103DE00013B11548FDF7ECFB04F54565284604F0D2
:103DF000E8FAF0B1284604F0E9FAD0B12046FFF71E
:103E00004FFF2846BDE8384004F0CCBA0B4801F01B
:103E1000E7FE2946094801F0EFFE09490648FDF78B
:103E20009FFC032384F84C3C04F6784004F0BAFA73
:103E3000D4E738BDDF420108B0D90020608A0020F5
:103E4000F342010870B5044600F6784529B32C48C2
:103E5000012101F0C5FE2A48012101F0CDFE2948CB
:103E60002949FDF77DFC022384F84C3C284604F0E8
:103E70009EFA04F54565284604F0A3FA00283ED0D2
:103E8000284604F0A3FA002839D02046FFF708FF9F
:103E90002846BDE8704004F085BA284604F091FA3F
:103EA0000028E6D0284604F091FA0028E1D0154811
:103EB0001649FDF755FC04F547660B2384F84C3C86
:103EC000304604F07EFA18B1304604F07FFA50B163
:103ED0000F490C48FDF744FC04F58060FCF7E1FD58
:103EE000304604F064FA284604F061FA04F65840BB
:103EF00004F05DFA04F5486004F054FAB9E770BDC7
:103F0000608A0020B0D900200D430108A9430108B0
:103F1000B743010870B5044600F668460D46E1B1A6
:103F2000304604F053FAA0B31A491B48FDF718FCB9
:103F3000072384F84C3C304604F039FA94F84D3CA1
:103F40003BB394F84F3C23B32046FFF7A9FE04F59A
:103F50004560BDE8704004F025BA10490E48FDF7F1
:103F6000FFFB304684F84C5C04F021FA04F658401C
:103F700004F01DFA04F5476004F019FA04F54560F1
:103F800004F015FA04F6884004F011FA012384F8CD
:103F9000983C70BD52430108B0D90020CC420108C2
:103FA00038B5044669B300F65845284604F009FAC6
:103FB000A8B1284604F00AFA88B118491848FDF754
:103FC000CFFB092384F84C3C04F5476004F0EFF97B
:103FD000284604F0ECF904F5446005F041FA04F5D4
:103FE0004565284604F0EDF9B8B1284604F0EEF92D
:103FF00098B12046FFF754FE2846BDE8384004F04B
:10400000D1B908490648FDF7ABFB082384F84C3CBE
:1040100004F6784004F0C6F9E1E738BD2243010810
:10402000B0D900203743010870B5044600F6784542
:10403000E9B128482849FDF793FB072384F84C3C55
:10404000284604F0B4F904F54565284604F0B9F9AA
:1040500000283ED0284604F0B9F9002839D020467F
:10406000FFF71EFE2846BDE8704004F09BB92846C5
:1040700004F0A7F90028E6D0284604F0A7F90028A4
:10408000E1D014481549FDF76BFB04F547660B2397
:1040900084F84C3C304604F094F918B1304604F0F2
:1040A00095F950B10E490B48FDF75AFB04F5006035
:1040B000FCF7F7FC304604F07AF9284604F077F96B
:1040C00004F6584004F073F904F5486004F06AF906
:1040D000B9E770BDB0D9002052430108A9430108D7
:1040E000C343010838B504460D46B9B9154801F077
:1040F00077FD1448294601F07FFD13491348FDF769
:104100002FFB052384F84C3C94F84E3C13B1204619
:10411000FFF7C6FD04F6784004F044F904F5456560
:10412000284604F04EF958B1284604F04FF938B14A
:104130002046FFF7B5FD2846BDE8384004F032B907
:1041400038BD00BF608A002068430108B0D9002054
:1041500038B5044600F6784521B32948012101F01D
:104160003FFD2748012101F047FD26482649FDF77C
:10417000F7FA042384F84C3C284604F018F904F5B7
:104180004565284604F01DF9002838D0284604F07B
:104190001DF9A0B32046FFF783FD2846BDE838404F
:1041A00004F000B9284604F00CF90028E7D02846AE
:1041B00004F00CF90028E2D014491248FDF7D0FAB7
:1041C0000B2384F84C3C04F5446005F04FF910498A
:1041D0000C48FDF7C5FA04F58060FCF762FC284640
:1041E00004F0E5F804F5476004F0E1F804F65840FF
:1041F00004F0DDF804F5486004F0D4F8BFE738BDFA
:10420000608A0020B0D90020DF420108A9430108DC
:10421000B743010838B5044651B90F480F49FDF7B7
:104220009FFA0A2384F84C3C04F6784004F0BAF86C
:1042300004F54565284604F0C4F858B1284604F052
:10424000C5F838B12046FFF72BFD2846BDE83840B9
:1042500004F0A8B838BD00BFB0D9002081430108E0
:1042600038B5044600F67845E1B125482549FDF703
:1042700077FA092384F84C3C284604F098F804F5B2
:104280004565284604F09DF8002838D0284604F0FB
:104290009DF8A0B32046FFF703FD2846BDE838404F
:1042A00004F080B8284604F08CF80028E7D02846AF
:1042B00004F08CF80028E2D013491148FDF750FAB9
:1042C0000B2384F84C3C04F5446005F0CFF80F490B
:1042D0000B48FDF745FA04F50060FCF7E2FB2846C1
:1042E00004F065F804F5476004F061F804F65840FE
:1042F00004F05DF804F5486004F054F8BFE738BDF9
:10430000B0D9002022430108A9430108C343010892
:1043100010B5044600F6584004F044F804F5476030
:10432000BDE8104004F03EB8F8B50446164600F566
:10433000456571B32E48012101F052FC2C48012142
:1043400001F05AFC2B492C48FDF70AFA02232B49AD
:1043500084F84C3C2848FDF703FA04F58060FCF72C
:1043600087FB04F50060FCF783FB2046FFF7D0FFD6
:10437000284604F026F8002838D0284604F026F80D
:10438000A0B32046FFF78CFC2846BDE8F84004F0B7
:1043900009B82AB11A491848FDF7E2F90723D6E708
:1043A00000F54867384604F00CF80028E0D038469D
:1043B00004F00CF80028DBD012490F48FDF7D0F9C3
:1043C000384684F84C6C03F0F2FF04F6884003F0A2
:1043D000EEFF94F84E3C13B12046FFF761FC2846EF
:1043E00003F0E5FF012384F8983CC1E7F8BD00BF66
:1043F000608A00200D430108B0D90020D043010895
:1044000052430108CC42010808B500F5566006F099
:1044100093FBF023B0FBF3F0C0B208BD08B500F584
:10442000566006F0E5FA002008BD037B10B503F0E6
:10443000FF041BB101234373002010BD42680389B0
:104440009BB222F81310038901339BB203810289C6
:10445000038892B29BB29A4228BF048102894389A1
:1044600092B29BB29A424FF0010308BF0373184601
:10447000E3E7182370B503FB01F6002400F554654B
:10448000B44205D000212846FFF7CFFF0134F7E7FB
:1044900070BD00002DE9F0410446FCF7CBF904F5AE
:1044A0008060FCF7C7F904F50060FCF7C3F904F578
:1044B0004060FCF742F804F54260FCF75FF904F64F
:1044C0002840002506F05CFB04F5446004F094FFEE
:1044D000C4F84C5C04F5456003F053FF04F6584003
:1044E00003F04FFF04F5466003F04BFF04F668400D
:1044F00003F047FF04F5476003F043FF04F67840FC
:1045000003F03FFF04F6884804F5486003F039FFE4
:1045100004F54967404603F034FF384603F031FFA5
:104520004FF43573C4F8AC3CC4F8B43C4FF4B562F6
:10453000484BC4F8B02CC4F8B83C474AC4F8D82C4F
:1045400045F26833C4F8BC3C444AC4F8DC2C4FF450
:104550000043C4F8D03CC4F8F43CC4F8FC3C44F636
:104560006C223F4BC4F8E02CC4F8003D3D4AC4F82F
:10457000F82C47F6E423C4F8043D84F8985CC4F8AA
:10458000A45CC4F89C5CC4F8A85CC4F8A05CC4F843
:10459000D45CC4F8C85CC4F8C05CC4F8CC5CC4F893
:1045A000C45CC4F8EC5CC4F8E45CC4F8F05CC4F827
:1045B000E85C04F60850FEF7E3FF01264FF0011314
:1045C0004FF4C871C4F81C3DC4F8186D04F552606E
:1045D00002F0EAFD40F66113A4F8485DA4F8403DFE
:1045E000A4F84A5D84F83C5DA4F83E6D84F84C5D07
:1045F00084F84D5D41F2C2200BF05AFE4FF4166371
:10460000A4F8503DA4F8585DC4F8440DA4F85A5DD0
:1046100084F85D5D84F85C5D4FF496500BF048FEC5
:10462000C4F8540D04F5566006F0C2F92A46314626
:104630004046A4F8805D03F0A8FE9622294638463D
:1046400003F0A3FE20466421FFF713FF2046BDE8D8
:10465000F08100BFF96BFFFF0080FFFF5D3BFFFFB4
:10466000B505FFFF0000FFFF182370B503FB01F63F
:10467000002400F55565B44205D000212846FFF717
:10468000D4FE0134F7E770BD38B5044600294BD09D
:1046900000F66845284603F080FEC0B14049414815
:1046A000FDF75EF8012384F84C3C284603F07AFEBF
:1046B00094F84D3C2BB194F84F3C13B92046FFF7CA
:1046C000EFFA94F84C3C013B012B0BD938BD36492D
:1046D0003448FDF745F8022384F84C3C94F84D3CEF
:1046E000002BEBD132212046FFF7BEFF2046FFF71B
:1046F0000FFE04F5456003F055FE04F5496003F034
:1047000056FE2A48012101F06BFA2848012101F0E8
:1047100073FA04F6884003F045FE94F84C1C2148D7
:10472000BDE83840FCF72CBF002ACFD000F6684522
:10473000284603F032FEC0B11D491A48FDF710F8B3
:10474000062384F84C3C284603F02CFE94F84D3C9C
:104750002BB194F84F3C13B92046FFF7A1FA94F817
:104760004C3C063B012BB1D80AE012490D48FCF73E
:10477000F7FF072384F84C3C94F84D3C002BEBD119
:1047800032212046FFF770FF2046FFF7C1FD04F5F8
:10479000456003F007FE04F5496003F008FEB8E742
:1047A000D9430108B0D900200D430108608A0020D8
:1047B000EE4301085243010838B590F84C3C0446DA
:1047C0000B2B0AD8DFE803F00635393D4145494E49
:1047D00053585D622046FFF757FF94F84C3C3BBBB3
:1047E00004F58060FCF74DF910BB04F50060FCF7A0
:1047F00048F9E8B92046FCF744F9C8B904F5496519
:10480000284603F0DEFD28B994F8983C13B12846F9
:1048100003F0C8FD284603F0D4FD48B1284603F054
:10482000D5FD28B1284603F0C2FD002384F8983C4A
:1048300038BD2046FFF75AFACFE72046FFF7AEFA19
:10484000CBE72046FFF7FEFAC7E72046FFF74AFC12
:10485000C3E72046FFF77CFCBFE711462046FFF781
:1048600059FBBAE711462046FFF79AFBB5E7114618
:104870002046FFF7D9FBB0E711462046FFF7CAFCF8
:10488000ABE711462046FFF7EBFCA6E72046FFF713
:104890004BFDA2E710B5044609B318491848FCF7C8
:1048A0005FFF0223174884F84C3C012101F098F97E
:1048B0001448012101F0A0F904F6584003F072FDFC
:1048C00004F5496003F073FD04F6884003F06AFDC7
:1048D00094F84C1C0A48BDE81040FCF751BE5AB190
:1048E00009490748FCF73CFF072384F84C3C322178
:1048F0002046FFF7B9FEDFE710BD00BF0D430108FA
:10490000B0D90020608A00205243010838B590F8E1
:104910004C3C04460A2B0AD8DFE803F00609272B93
:104920002F2F0933383D42002046FFF7B3FF94F89C
:104930004C3CCBB904F54965284603F042FD28B943
:1049400094F8983C13B1284603F02CFD284603F058
:1049500038FD48B1284603F039FD28B1284603F058
:1049600026FD002384F8983C38BD2046FFF758F810
:10497000DDE72046FFF790F8D9E72046FFF70AF970
:10498000D5E711462046FFF7BFF8D0E7114620468D
:10499000FFF7E8F8CBE711462046FFF753F9C6E7E3
:1049A00011462046FFF764F9C1E7000070B50446E0
:1049B00015460E4611B390F8803DEBB93B480121F6
:1049C00001F00EF93948012101F016F994F8813D02
:1049D0007BB937493748FCF7C3FE022304F6884009
:1049E00084F84C3C03F0DEFC94F84C1C3148FCF796
:1049F000C7FD012384F8803D0DB940E0EAB194F889
:104A0000813DCBB994F8803D7BB92B492948FCF70F
:104A1000A7FE072304F6884084F84C3C03F0C2FC50
:104A200094F84C1C2348FCF7ABFD32212046FFF7DD
:104A30001BFE012384F8813DBEBB94F8803DEBB1A1
:104A40001A48002101F0CCF81848002101F0D4F8F0
:104A500094F8816D4EB917481849FCF781FE84F827
:104A60004C6C04F6884003F0A2FC002384F8803DDF
:104A700094F83C3D13B10F48FCF7A2FDADB994F892
:104A8000813D93B194F8805D4DB90A480B49FCF71C
:104A900067FE84F84C5C04F6884003F088FC012330
:104AA00084F8983C002384F8813D70BD608A002022
:104AB0000D430108B0D9002052430108CC4201083F
:104AC00090F8193D0BB1FFF771BF034B1B780BB189
:104AD000FFF772BEFFF71ABFDF010020028943898A
:104AE00092B29BB29A4203D1027B02F0FF039AB1C9
:104AF000426843899BB232F913300B800021017365
:104B0000438901339BB243814289038892B29BB2AD
:104B10009A4228BF41810123184670472DE9F04F82
:104B20009B4690F81A3D85B004460E4617460BB1D9
:104B300081F0010659462046FEF72CFFDFF8D482AB
:104B400007EB4B0B04F6284ABB4500F05E8137F9B2
:104B5000021BB4F93E3D090291FBF3F194F81B3DB1
:104B600009B2ADF80C101BB1504606F015F8064618
:104B70000DF10E0104F5566005F097FF024608B1ED
:104B800094F83C2D94F8183D012B0DD0022B00F029
:104B9000D080002B40F0ED8022B91EB998F800308B
:104BA0000A2BD1D131461AE0BDF90C10019204F55F
:104BB0004060FBF7EDFC04F55469BDF90C100546A7
:104BC0004846FFF732FC03A94846FFF787FF019AE2
:104BD00098F800303AB935B90A2BB5D129462046A4
:104BE000FFF76EFF09E00A2BF8D029462046FFF7B1
:104BF00067FF94F84C3C002BA6D098F800300A2BA5
:104C0000A2D194F84C3C002B00F0CB8094F84C3CA3
:104C1000BDF90C10B4F91C9D9A1FD2B2012A03D819
:104C2000BDF90E10B4F91E9D79480078002800F0F7
:104C3000D480013B012B02D9012A00F2E18004F665
:104C40000850FEF7ADFC94F83C3D05464BB194F896
:104C50004C3C013B012B04D8014604F5526002F0A4
:104C6000B7FA15FB09F52DB22046FBF70CFF04F54A
:104C7000806948B904F50060FBF705FF20B9484694
:104C8000FBF772FE284405B22046FBF7FCFE48B94C
:104C90004846FBF7F8FE28B904F50060FBF764FE10
:104CA000284405B24846FBF7EEFE78B904F50060EB
:104CB000FBF7E9FE50B994F84C3CADB22046002B0E
:104CC00040F0A080FBF750FE05442DB2294604F6C3
:104CD0009C40FEF701FD014604F54C60FEF7FCFC2C
:104CE000014604F6E440FEF7F7FC05462046FBF7D4
:104CF000CAFE70B94846FBF7C6FE50B904F500601D
:104D0000FBF7C1FE28B904F5446004F081FB284498
:104D100005B204F5496003F054FB014604F5426016
:104D2000FBF776FD284401B204F55560FFF77DFBE3
:104D30000AE7BDF90C10019204F54060FBF728FC6E
:104D4000019A01464AB928B998F800300A2B3FF475
:104D500046AFF9E6002E3FF425AF98F800300A2B55
:104D600003D0002918BF314640E7002918BF31465B
:104D700035E7BDF90C10019204F54060FBF708FC23
:104D8000019A2AB900283FF409AF002E3FF40AAF78
:104D900098F800300A2B3FF405AF002808BF014601
:104DA000E0E704F58060FBF76CFE00287FF42EAF8F
:104DB00004F50060FBF765FE00287FF427AF20466E
:104DC000FBF75FFE00287FF421AF04F5496003F094
:104DD000F8FA00287FF41AAFB6E6012A02D811FBD0
:104DE00009F540E794F83C2D002A3FF4ADAE013BB5
:104DF000012B3FF6A9AE04F5526002F0E9F9A3E6F3
:104E0000002531E7FBF7F2FD5EE705B0BDE8F08F66
:104E1000DF010020999A00202DE9F04F984690F884
:104E20001A3D85B004460D4616460BB181F00105CA
:104E300041462046FEF7AEFD684F06EB480804F6F3
:104E40002849464500F0C68036F9021BB4F93E3DBC
:104E5000090291FBF3F194F81B3D09B2ADF80C1077
:104E60001BB1484605F098FE05460DF10E0104F50C
:104E7000566005F01AFE024608B194F83C2D94F8ED
:104E8000183D012B0BD0022B71D0002B40F08B80F2
:104E90001AB915B93B780A2BD3D129461BE0BDF9C5
:104EA0000C10019204F54060FBF772FB04F5546BA3
:104EB000BDF90C1082465846FFF7B7FA03A95846C9
:104EC000FFF70CFE019A3B784AB9BAF1000F06D100
:104ED0000A2BB6D151462046FFF7F2FD09E00A2B16
:104EE000F8D051462046FFF7EBFD94F84C3C002BE0
:104EF000A7D03B780A2BA4D194F8803D6BB194F8ED
:104F00003C3D53B1BDF90C1004F60850FEF748FBC8
:104F1000014604F5526002F05BF994F8813D002BE4
:104F20008FD0BDF80E30B4F81E1D11FB03F109B28D
:104F300004F69C40FEF7D0FB014604F54C60FEF7FA
:104F4000CBFB014604F6E440FEF7C6FB824604F5BF
:104F5000496003F036FA014604F54260FBF758FC5D
:104F6000504401B204F55560FFF75FFA69E7BDF9F7
:104F70000C10019204F54060FBF70AFB019A014610
:104F800032B918B93B780A2BA5D05AE7002D84D046
:104F90003B780A2B03D0002918BF2946A2E7002935
:104FA00018BF294697E7BDF90C10019204F540603F
:104FB000FBF7EEFA019A2AB900283FF46BAF002DF7
:104FC0003FF46BAF3B780A2B3FF467AF002808BF74
:104FD0000146E1E705B0BDE8F08F00BF999A0020D7
:104FE00010B490F8194D1CB15DF8044BFFF714BFD5
:104FF0005DF8044BFFF792BD2DE9F0430446C1B0C4
:10500000354800F0CBFDB4F85A2DB4F8583D92B2B3
:105010009BB29A4248D194F85C3D3BB3B4F8502D12
:105020000A2823D9632A21D9851EADB2642D4FF0F9
:10503000000604F5556928BF642504AFB046013663
:105040000DF10E014846B6B2ADF80E80FFF746FDF1
:10505000BDF80E3027F8023BB54204AAEFD11E4836
:10506000CDF800802B460A2101F09EF994F83C3DD2
:10507000BBB104F55264204602F00FF94F2810D955
:1050800004AD00262F4629462046013602F0E0F8FE
:10509000502E05F10305F6D11048F0223946FCF7F1
:1050A00029FA41B0BDE8F083B4F85A2DB4F8583D60
:1050B00092B29BB29A4223BFB4F85A3DB4F8501D45
:1050C000B4F8582DB4F8582D34BFB4F85A3D11FA3D
:1050D00082F2D21A92B2A3E7608A0020B0D90020EF
:1050E000002303608380821D00F2867122F8023B58
:1050F0008A42FBD1154AC0F88827154AA0F886379E
:10510000C0F88C27C0F89027C0F89437C0F89837BB
:1051100000F2BC7100F29C73002223F8022B8B4238
:10512000FBD1A0F8BC2700F2DE7100F2BE720023B2
:1051300022F8023B9142FBD16322A0F8DE3780F8CF
:10514000E027C0F8E437A0F8E837704700000F27E1
:105150000F270F27632280F8E0270C4AC0F8882722
:1051600000230B4A0370A0F8BC37A0F8DE37A0F884
:105170008637C0F88C27C0F89027C0F89437C0F85D
:105180009837C0F8E437A0F8E837704700000F27D9
:105190000F270F27F7B5394F4FF47A5305464FF0D5
:1051A000000E9C463C461FFA8EF082421ED905EB4B
:1051B0004100B0F90600002811DD8442B8BF044662
:1051C0008445A8BF84464E1DB0B2B0F5707F24BFA1
:1051D000A1F2BB3080B20EF1010E0146E3E783423B
:1051E000A8BF03468742B8BF0746ECE73B44644488
:1051F0005B10621003EB640444F34F06A2EB6404FB
:1052000024B21F491F481BB2CDE9006412B2FDF75A
:1052100014FB95F8E037632B05F29C7105F2BC7026
:105220001FD10B4623F8026B98421C84FAD100234D
:1052300085F8E0370023A5F8BC37A5F8DE371A4615
:1052400031F9024B22440C8C8842234412B21BB227
:10525000F6D112111B11A5F8BC27A5F8DE3703B053
:10526000F0BD05EB43020133DBB20F2BA2F89C67C4
:10527000A2F8BE4785F8E037D9D8DBE780C1FFFF49
:1052800004440108B0D900202DE9F74FBDF938805A
:10529000BDF934A0DFF89C90CDE90002BDF83000E4
:1052A0004FF0000EC8F1000B019C1FFA8EF2A242D3
:1052B0003DD2009A02EB4102461CD48800F007025E
:1052C000A4EB0A044FEAE00C19F8025013F80C7032
:1052D00024B2C6F3CC0206F0070602305C4519F88A
:1052E000066080B206DA27EA050503F80C509C5CDC
:1052F000264308E0002C13DA27EA050503F80C50D2
:105300009C5C24EA06069E544A1D92B2B2F5707F58
:1053100024BFA1F2BB318AB20EF1010E1146C3E7E0
:105320003D4303F80C5044459C5CE1DAE9E703B0E7
:10533000BDE8F08FD04401082DE9F0479846B0F859
:10534000863703440446587886B04840154604F032
:1053500091F89DF83830984200F29180B4F888377F
:10536000484903F29D37BFB2B7F5707F24BFA3F160
:105370002307BFB205F1FF3CEA1D3B4600254FF471
:105380007A504FF6FD7E4FF0030904EB43061CF9FB
:1053900001AFB6F90660B142B8BF3146B042A8BF0E
:1053A0003046BAF1010F65D0BAF1030F04D0BAF15B
:1053B000FF3F61D1354401E016FB0E555E1DB6B2CC
:1053C000B6F5707F26BFA3F2BB339BB2334694453C
:1053D000DBD1D4F89437AB4251DA94F8E037632B41
:1053E0000AD108444010A4F8BC07081A44F63E113C
:1053F0004843C013A4F8DE07B4F9DE370293002651
:10540000B4F9BC3701930822394605AB2046009613
:10541000FFF73AFF98F800309DF81400584004F068
:1054200029F898F8013081469DF81500584004F09D
:1054300021F89DF83C304844C0B283421FD3042376
:10544000A4F89837B4F88837A4F88E3703F2973267
:1054500092B2B2F5707F28BF293BC4F89457A4F8E4
:105460008A7734BFA4F88C27A4F88C37012006B0C3
:10547000BDE8F087AD1BA1E716FB09559EE70020AC
:10548000F5E700BF80C1FFFF73B50025CDE90055EA
:105490002C4B2D4AF2210446FFF74EFFCDE9005573
:1054A0002A4B2B4A06460D212046FFF745FF0546AD
:1054B00006B9E0B194F89A37CBB9C4F8E437A4F848
:1054C000E8372448012100F08BFB2248012100F03D
:1054D00093FB632384F8E037052384F89A3716B1E9
:1054E000012384F89B3715B1022384F89B3794F885
:1054F0009A3723B3013BDBB2012B84F89A371ED1D4
:10550000B4F88E3703F2BF3292B2B2F5707F28BF83
:1055100003F1FF32A4F890275A1C92B2B2F5707FC3
:1055200024BFA3F2BF33A4F8923794F89B372370BB
:105530004FF0000338BFA4F89227A4F89A3702B0BE
:1055400070BD00BFDC440108EE440108DA440108E4
:10555000E6440108608A002010B50446B0F8E80768
:1055600098B1D4F8E427B2FBF0F2C2F3072081F837
:10557000322081F8310033220548FBF723FF002356
:10558000C4F8E437A4F8E83710BD3122F4E700BFCF
:10559000B0D9002010B50446B0F8E80798B1D4F8A7
:1055A000E427B2FBF0F2C2F3072081F8322081F841
:1055B000310033220548FBF733FF0023C4F8E437FA
:1055C000A4F8E83710BD3122F4E700BFB0D90020BD
:1055D000F0B5B0F89017B0F89227B0F8883791423C
:1055E00093B0044680F0A080994239D89A4237D3CC
:1055F00001270225CDE90075654B664A0D21FFF7AD
:105600009BFECDE900750646634B644AFD212046AA
:10561000FFF792FE06B1257010B3B4F9DE37B4F986
:105620008E275F495F480093B4F9BC37FDF7BEF899
:105630005D48002100F0D4FA5B48002100F0DCFA5C
:105640005848FBF71BFF42F20F720023A4F88C2787
:105650006322237084F8E027A4F89A37C4F89437BB
:10566000B4F88827B4F88C379A425BD1B4F89837ED
:10567000042B16D1B4F88E3703F2BF3292B2B2F5D2
:10568000707F28BF03F1FF32A4F890275A1C92B212
:10569000B2F5707F2ABFA3F2BF33A4F89227A4F813
:1056A0009237B4F88A17C0222046FFF773FD21789D
:1056B000B4F9BC37B4F9DE27012942D0022948D019
:1056C000B4F9DE370293B4F9BC3701930823009391
:1056D000B4F88A1705ABC0222046FFF7D5FDB4F811
:1056E0009857013DADB2A4F89857002D36D12F49F7
:1056F0002C48FCF735F82C48294600F071FA2A4866
:10570000294600F079FA2748FBF7D6FE42F20F73DC
:10571000A4F88C376323257084F8E037A4F89A57EF
:10572000C4F8945713B0F0BD994201D99A4297D367
:1057300001270225CDE90075154B164A0D2120469B
:105740005DE700921A49B4F98E271648FDF72EF846
:10575000B6E700921749B4F98E27F6E7EB1E5D42D3
:105760005D4123788DF81450012B07D0022B0AD00D
:105770000023C4F8943784F89B37D3E705A9204663
:10578000FFF7EAFEF4E705A92046FFF703FFEFE77E
:10579000DA440108E6440108D8440108DE4401085F
:1057A00024440108B0D90020608A0020AF440108D9
:1057B0004F440108814401082DE9F0410446884620
:1057C000951E01EB43060027B0453FD035F8022F68
:1057D000D4F8E43738F9021B1344C4F8E437B4F8BA
:1057E000E8370133A4F8E837B4F8863723440029B2
:1057F00058784FEA4000C0B2B8BF40F0010058707E
:10580000B4F8883704EB43032046D9802378013B62
:10581000012B18D8FFF7DCFEB4F8883701339BB2B0
:10582000B3F5707F38BFA4F88837B4F8863728BF3F
:10583000A4F8887701339BB2042B94BFA4F8863771
:10584000A4F88677C0E7FFF71FFEE5E7BDE8F08123
:1058500070B504460625002686F00106314620462E
:1058600004F05CFD3146204604F068FD31462046D8
:1058700004F06CFD3146204604F070FD31462046B0
:1058800004F074FD3146204604F078FD3146204690
:1058900004F07CFD013DFA21204604F0B5FD15F031
:1058A000FF05D9D12946204604F050FD294620465F
:1058B00004F054FD2946204604F058FD29462046B0
:1058C00004F05CFD2946204604F060FD20460121DD
:1058D00004F03CFD2046FA2104F096FD204601210B
:1058E00004F03CFD2046FA2104F08EFD2046012103
:1058F00004F03CFD2046FA2104F086FD20460121FB
:1059000004F03CFD2046FA2104F07EFD20460121F2
:1059100004F03CFD2046FA2104F076FD294620469D
:1059200004F034FD2046FA2104F06EFD294620469D
:1059300004F024FD2046FA2104F066FD29462046A5
:1059400004F014FD2046FA2104F05EFD29462046AD
:1059500004F004FD2046FA2104F056FD29462046B5
:10596000BDE8704004F0F2BC2DE9F74F00254FF47C
:105970001676044685810570C58186800574457458
:105980004FF416600AF094FC4FF4FA73A382A583D7
:10599000A060E58384F8215084F820504FF4FA6029
:1059A0000AF086FCA585A061E585A68484F83050C0
:1059B00084F831504FF496600AF07AFC1022A0620D
:1059C000294604F134000AF0ABFDC4E91155C4E9DD
:1059D0001355C4E9165504F1600A04F14403A4F810
:1059E000545004F1B001524622F8025B9142FBD1BF
:1059F000C4E92D5504F1BC09A4F8B05004F5A47015
:105A00004946002221F8022B8842FBD104F5AA78EE
:105A1000C4E95322A4F8482104F5F070414600225D
:105A200021F8022B8842FBD104F5F677C4E97922EC
:105A3000A4F8E02104F50A703946002221F8022B6F
:105A40008842FBD104F50D76C4E98B22A4F8282204
:105A500004F521703146002221F8022B8842FBD147
:105A600004F52475C4E9A222A4F8842204F5477041
:105A70002946002221F8022B88424FF0000BF9D171
:105A80004FF48041A4F81E134FF04021C4E9C8111F
:105A9000C4E9CA11C4F830134FF00821C4F8341314
:105AA000012184F83823C4F83C23C4F84013A4F837
:105AB0004423C4F8482384F81CB384F84CB3102260
:105AC0000021184601930AF02BFD01236363019B1B
:105AD000A3632C4BE36384F840B05022002150466E
